:100000000C9434000C9449000C9449000C94490061
:100010000C9449000C9449000C9449000C9449003C
:100020000C9449000C9449000C9449000C9449002C
:100030000C9449000C9449000C9449000C9449001C
:100040000C9449000C9449000C9449000C9449000C
:100050000C9449000C9449000C9449000C944900FC
:100060000C9449000C94490011241FBECFEFD8E036
:10007000DEBFCDBF11E0A0E0B1E0E6EAF8E002C0EB
:1000800005900D92AA30B107D9F70E94B7010C94E0
:1000900051040C94000017B880EC80937C0087E832
:1000A00080937A00089580917A00806480937A002A
:1000B00080917A0084FFFCCF809178009091790044
:1000C00008958F929F92AF92BF92CF92DF92EF925C
:1000D000FF920F931F93CF93DF93CDB7DEB72A978D
:1000E0000FB6F894DEBF0FBECDBF6B017C018AE076
:1000F000E0E0F1E0DE01119601900D928A95E1F7C2
:100100000AE010E089E3882E90E8992E27EFA22ECE
:100110003FEEB32E8BB815B88FE19EE40197F1F74F
:1001200000C0000020E030E040E251E4C701B60129
:100130000E943C030E94C502E1E0F0E0EC0FFD1FCD
:10014000E60FF11D80818BB915B88FE19EE4019710
:10015000F1F700C0000020E030E040E251E4C701C8
:10016000B6010E94530220E030E040E251E40E94D8
:100170003C030E94C502E1E0F0E0EC0FFD1FE60F3A
:10018000F11D80818BB915B88FE19EE40197F1F7DD
:1001900000C000009BB8A5B88FE19EE40197F1F77D
:1001A00000C0000020E030E048EC52E4C701B60196
:1001B0000E94530220E030E040E251E40E943C0300
:1001C0000E94C502E1E0F0E0EC0FFD1FE60FF11D1B
:1001D00080818BB9B5B88FE19EE40197F1F700C03B
:1001E00000000150110909F095CF2A960FB6F89436
:1001F000DEBF0FBECDBFDF91CF911F910F91FF905A
:10020000EF90DF90CF90BF90AF909F908F90089528
:100210006F927F928F929F92AF92BF92CF92DF9216
:10022000EF92FF920F931F93CF93DF93CDB7DEB77B
:100230002A970FB6F894DEBF0FBECDBF6B017C01CD
:100240008AE0E0E0F1E0DE01119601900D928A95DE
:10025000E1F70AE010E081E7682E9DEF792E2BEFA1
:10026000822E37EFB32E40E8942E5FEEA52E6BB8AA
:1002700075B88FE19EE40197F1F700C0000020E01F
:1002800030E040E251E4C701B6010E943C030E9405
:10029000C502E1E0F0E0EC0FFD1FE60FF11D8081EB
:1002A0008BB985B88FE19EE40197F1F700C000009B
:1002B00020E030E040E251E4C701B6010E94530261
:1002C00020E030E040E251E40E943C030E94C5027D
:1002D000E1E0F0E0EC0FFD1FE60FF11D80818BB92E
:1002E000B5B88FE19EE40197F1F700C000009BB81C
:1002F000B5B88FE19EE40197F1F700C0000020E05F
:1003000030E048EC52E4C701B6010E94530220E0FD
:1003100030E040E251E40E943C030E94C502E1E06B
:10032000F0E0EC0FFD1FE60FF11D80818BB9A5B841
:100330008FE19EE40197F1F700C000000150110920
:1003400009F095CF2A960FB6F894DEBF0FBECDBF49
:10035000DF91CF911F910F91FF90EF90DF90CF90A1
:10036000BF90AF909F908F907F906F9008958FEF88
:100370008AB984B985B90E944B0080E188B90E948E
:100380005300BC0190E080E00E94F40234991BC04D
:1003900020E030E040E251E40E94530220E030E0EF
:1003A00040E052E40E94E60124EE38E34EE05FE3D1
:1003B0000E94E40320E030E040E251E40E94E403C4
:1003C0000E946100DCCF0E940801D9CF5058BB27A2
:1003D000AA270E94FE010C94AA030E949C0338F0F5
:1003E0000E94A30320F039F49F3F19F426F40C94E3
:1003F00099030EF4E095E7FB0C948503E92F0E9426
:10040000BB0358F3BA17620773078407950720F0F8
:1004100079F4A6F50C94DD030EF4E0950B2EBA2FBB
:10042000A02D0B01B90190010C01CA01A0011124FA
:10043000FF27591B99F0593F50F4503E68F11A16A6
:10044000F040A22F232F342F4427585FF3CF469537
:1004500037952795A795F0405395C9F77EF41F1659
:10046000BA0B620B730B840BBAF09150A1F0FF0F23
:10047000BB1F661F771F881FC2F70EC0BA0F621F0F
:10048000731F841F48F4879577956795B795F795FF
:100490009E3F08F0B0CF9395880F08F09927EE0F94
:1004A0009795879508950E9467020C94AA030E946D
:1004B000A30358F00E949C0340F029F45F3F29F009
:1004C0000C94850351110C94DE030C9499030E9443
:1004D000BB0368F39923B1F3552391F3951B550B97
:1004E000BB27AA2762177307840738F09F5F5F4F07
:1004F000220F331F441FAA1FA9F335D00E2E3AF046
:10050000E0E832D091505040E695001CCAF72BD05D
:10051000FE2F29D0660F771F881FBB1F26173707AE
:100520004807AB07B0E809F0BB0B802DBF01FF27E0
:1005300093585F4F3AF09E3F510578F00C94850335
:100540000C94DE035F3FE4F3983ED4F386957795F1
:100550006795B795F7959F5FC9F7880F911D969599
:10056000879597F90895E1E0660F771F881FBB1FF5
:10057000621773078407BA0720F0621B730B840BA2
:10058000BA0BEE1F88F7E09508950E94C30388F028
:100590009F5798F0B92F9927B751B0F0E1F0660F47
:1005A000771F881F991F1AF0BA95C9F714C0B13088
:1005B00091F00E94DD03B1E008950C94DD03672FF4
:1005C000782F8827B85F39F0B93FCCF386957795B7
:1005D0006795B395D9F73EF49095809570956195A0
:1005E0007F4F8F4F9F4F0895E89409C097FB3EF4CB
:1005F00090958095709561957F4F8F4F9F4F992370
:10060000A9F0F92F96E9BB279395F69587957795ED
:100610006795B795F111F8CFFAF4BB0F11F460FFAD
:100620001BC06F5F7F4F8F4F9F4F16C0882311F005
:1006300096E911C0772321F09EE8872F762F05C019
:10064000662371F096E8862F70E060E02AF09A95B4
:10065000660F771F881FDAF7880F9695879597F9A9
:1006600008950E949C0320F019F00E94A30350F407
:100670000C9499030C94DE03E92F0E94BB0388F3CA
:100680005523B1F3E7FB6217730784079507A8F1B9
:1006900089F3E92FFF2788232AF03197660F771F08
:1006A000881FDAF7952F5527442332F09150504098
:1006B000220F331F441FD2F7BB27E91BF50B621B28
:1006C000730B840BB109B1F222F4620F731F841F04
:1006D000B11D31972AF0660F771F881FBB1FEFCF20
:1006E0009150504062F041F0882332F0660F771F3E
:1006F000881F91505040C1F793950C948B038695B9
:10070000779567959F5FD9F7F7CF97F99F6780E84F
:1007100070E060E008959F3F31F0915020F487959C
:1007200077956795B795880F911D9695879597F959
:1007300008959FEF80EC089500240A94161617067A
:1007400018060906089500240A94121613061406C2
:1007500005060895092E0394000C11F4882352F025
:10076000BB0F40F4BF2B11F460FF04C06F5F7F4FDD
:100770008F4F9F4F089557FD9058440F551F59F0C4
:100780005F3F71F04795880F97FB991F61F09F3F7E
:1007900079F087950895121613061406551FF2CFA7
:1007A0004695F1DF08C0161617061806991FF1CFF7
:1007B00086957105610508940895E894BB2766271E
:1007C0007727CB0197F908950E94F7030C94AA03A9
:1007D0000E949C0338F00E94A30320F0952311F09F
:1007E0000C9485030C94990311240C94DE030E944D
:1007F000BB0370F3959FC1F3950F50E0551F629FA7
:10080000F001729FBB27F00DB11D639FAA27F00D69
:10081000B11DAA1F649F6627B00DA11D661F829F90
:100820002227B00DA11D621F739FB00DA11D621F75
:10083000839FA00D611D221F749F3327A00D611D92
:10084000231F849F600D211D822F762F6A2F112474
:100850009F5750409AF0F1F088234AF0EE0FFF1FA7
:10086000BB1F661F771F881F91505040A9F79E3FFE
:10087000510580F00C9485030C94DE035F3FE4F394
:10088000983ED4F3869577956795B795F795E79554
:100890009F5FC1F7FE2B880F911D9695879597F95D
:0608A0000895F894FFCF5B
:0A08A6003F065B4F666D7D077F671C
:00000001FF
